{
  "_format": "hh-sol-artifact-1",
  "contractName": "StudentManagementSystem",
  "sourceName": "contracts/StudentManagementSystem.sol",
  "abi": [
    {
      "anonymous": false,
      "inputs": [
        {
          "indexed": false,
          "internalType": "string",
          "name": "_cni",
          "type": "string"
        },
        {
          "components": [
            {
              "internalType": "string",
              "name": "schoolName",
              "type": "string"
            },
            {
              "internalType": "string",
              "name": "degreeType",
              "type": "string"
            },
            {
              "internalType": "string",
              "name": "major",
              "type": "string"
            },
            {
              "internalType": "uint256[]",
              "name": "scores",
              "type": "uint256[]"
            }
          ],
          "indexed": false,
          "internalType": "struct StudentManagementSystem.Degree",
          "name": "degree",
          "type": "tuple"
        }
      ],
      "name": "DegreeAdded",
      "type": "event"
    },
    {
      "anonymous": false,
      "inputs": [
        {
          "indexed": false,
          "internalType": "string",
          "name": "_cni",
          "type": "string"
        },
        {
          "indexed": false,
          "internalType": "string",
          "name": "name",
          "type": "string"
        }
      ],
      "name": "StudentRegistered",
      "type": "event"
    },
    {
      "inputs": [
        {
          "internalType": "string",
          "name": "cne",
          "type": "string"
        },
        {
          "internalType": "string",
          "name": "_schoolName",
          "type": "string"
        },
        {
          "internalType": "string",
          "name": "_degreeType",
          "type": "string"
        },
        {
          "internalType": "string",
          "name": "_major",
          "type": "string"
        },
        {
          "internalType": "uint256[]",
          "name": "_scores",
          "type": "uint256[]"
        }
      ],
      "name": "addDegree",
      "outputs": [],
      "stateMutability": "nonpayable",
      "type": "function"
    },
    {
      "inputs": [
        {
          "internalType": "string",
          "name": "_cni",
          "type": "string"
        }
      ],
      "name": "getStudent",
      "outputs": [
        {
          "components": [
            {
              "internalType": "string",
              "name": "cni",
              "type": "string"
            },
            {
              "internalType": "string",
              "name": "cne",
              "type": "string"
            },
            {
              "internalType": "string",
              "name": "name",
              "type": "string"
            },
            {
              "internalType": "string",
              "name": "email",
              "type": "string"
            },
            {
              "components": [
                {
                  "internalType": "string",
                  "name": "schoolName",
                  "type": "string"
                },
                {
                  "internalType": "string",
                  "name": "degreeType",
                  "type": "string"
                },
                {
                  "internalType": "string",
                  "name": "major",
                  "type": "string"
                },
                {
                  "internalType": "uint256[]",
                  "name": "scores",
                  "type": "uint256[]"
                }
              ],
              "internalType": "struct StudentManagementSystem.Degree[]",
              "name": "degrees",
              "type": "tuple[]"
            }
          ],
          "internalType": "struct StudentManagementSystem.Student",
          "name": "",
          "type": "tuple"
        }
      ],
      "stateMutability": "view",
      "type": "function"
    },
    {
      "inputs": [
        {
          "internalType": "string",
          "name": "_cni",
          "type": "string"
        },
        {
          "internalType": "string",
          "name": "_cne",
          "type": "string"
        },
        {
          "internalType": "string",
          "name": "email",
          "type": "string"
        },
        {
          "internalType": "string",
          "name": "_name",
          "type": "string"
        }
      ],
      "name": "registerStudent",
      "outputs": [],
      "stateMutability": "nonpayable",
      "type": "function"
    },
    {
      "inputs": [],
      "name": "studentCount",
      "outputs": [
        {
          "internalType": "uint256",
          "name": "",
          "type": "uint256"
        }
      ],
      "stateMutability": "view",
      "type": "function"
    },
    {
      "inputs": [
        {
          "internalType": "string",
          "name": "",
          "type": "string"
        }
      ],
      "name": "students",
      "outputs": [
        {
          "internalType": "string",
          "name": "cni",
          "type": "string"
        },
        {
          "internalType": "string",
          "name": "cne",
          "type": "string"
        },
        {
          "internalType": "string",
          "name": "name",
          "type": "string"
        },
        {
          "internalType": "string",
          "name": "email",
          "type": "string"
        }
      ],
      "stateMutability": "view",
      "type": "function"
    }
  ],
  "bytecode": "0x608060405234801561001057600080fd5b50611a27806100206000396000f3fe608060405234801561001057600080fd5b50600436106100575760003560e01c806359ab90711461005c5780635e08153c14610078578063c7ef6bfb14610094578063d0296612146100c7578063e581f9ee146100f7575b600080fd5b61007660048036038101906100719190610d0b565b610115565b005b610092600480360381019061008d9190610ee0565b610270565b005b6100ae60048036038101906100a99190610fe7565b6103bf565b6040516100be94939291906110af565b60405180910390f35b6100e160048036038101906100dc9190610fe7565b610625565b6040516100ee91906113e4565b60405180910390f35b6100ff610b12565b60405161010c9190611415565b60405180910390f35b60008085604051610126919061146c565b9081526020016040518091039020905084816000019081610147919061168f565b5083816001019081610159919061168f565b508281600301908161016b919061168f565b508181600201908161017d919061168f565b508460018560405161018f919061146c565b908152602001604051809103902090816101a9919061168f565b5060016002866040516101bc919061146c565b908152602001604051809103902060006101000a81548160ff02191690831515021790555060016003856040516101f3919061146c565b908152602001604051809103902060006101000a81548160ff0219169083151502179055506004600081548092919061022b90611790565b91905055507f99de9e27b7501a37ca6980ff5a350f85ee64d5242f63c8db6354390ff1bf377985836040516102619291906117d8565b60405180910390a15050505050565b6000600186604051610282919061146c565b908152602001604051809103902090506000816040516102a291906118a7565b908152602001604051809103902060040160405180608001604052808781526020018681526020018581526020018481525090806001815401808255809150506001900390600052602060002090600402016000909190919091506000820151816000019081610312919061168f565b506020820151816001019081610328919061168f565b50604082015181600201908161033e919061168f565b50606082015181600301908051906020019061035b929190610b18565b5050507f1c8028408aedc23d9e9bc8c740e21f8300d0237554bc6b3af1cb41835f284f96816040518060800160405280888152602001878152602001868152602001858152506040516103af9291906119ba565b60405180910390a1505050505050565b6000818051602081018201805184825260208301602085012081835280955050505050506000915090508060000180546103f8906114b2565b80601f0160208091040260200160405190810160405280929190818152602001828054610424906114b2565b80156104715780601f1061044657610100808354040283529160200191610471565b820191906000526020600020905b81548152906001019060200180831161045457829003601f168201915b505050505090806001018054610486906114b2565b80601f01602080910402602001604051908101604052809291908181526020018280546104b2906114b2565b80156104ff5780601f106104d4576101008083540402835291602001916104ff565b820191906000526020600020905b8154815290600101906020018083116104e257829003601f168201915b505050505090806002018054610514906114b2565b80601f0160208091040260200160405190810160405280929190818152602001828054610540906114b2565b801561058d5780601f106105625761010080835404028352916020019161058d565b820191906000526020600020905b81548152906001019060200180831161057057829003601f168201915b5050505050908060030180546105a2906114b2565b80601f01602080910402602001604051908101604052809291908181526020018280546105ce906114b2565b801561061b5780601f106105f05761010080835404028352916020019161061b565b820191906000526020600020905b8154815290600101906020018083116105fe57829003601f168201915b5050505050905084565b61062d610b65565b60008260405161063d919061146c565b90815260200160405180910390206040518060a0016040529081600082018054610666906114b2565b80601f0160208091040260200160405190810160405280929190818152602001828054610692906114b2565b80156106df5780601f106106b4576101008083540402835291602001916106df565b820191906000526020600020905b8154815290600101906020018083116106c257829003601f168201915b505050505081526020016001820180546106f8906114b2565b80601f0160208091040260200160405190810160405280929190818152602001828054610724906114b2565b80156107715780601f1061074657610100808354040283529160200191610771565b820191906000526020600020905b81548152906001019060200180831161075457829003601f168201915b5050505050815260200160028201805461078a906114b2565b80601f01602080910402602001604051908101604052809291908181526020018280546107b6906114b2565b80156108035780601f106107d857610100808354040283529160200191610803565b820191906000526020600020905b8154815290600101906020018083116107e657829003601f168201915b5050505050815260200160038201805461081c906114b2565b80601f0160208091040260200160405190810160405280929190818152602001828054610848906114b2565b80156108955780601f1061086a57610100808354040283529160200191610895565b820191906000526020600020905b81548152906001019060200180831161087857829003601f168201915b5050505050815260200160048201805480602002602001604051908101604052809291908181526020016000905b82821015610b0357838290600052602060002090600402016040518060800160405290816000820180546108f6906114b2565b80601f0160208091040260200160405190810160405280929190818152602001828054610922906114b2565b801561096f5780601f106109445761010080835404028352916020019161096f565b820191906000526020600020905b81548152906001019060200180831161095257829003601f168201915b50505050508152602001600182018054610988906114b2565b80601f01602080910402602001604051908101604052809291908181526020018280546109b4906114b2565b8015610a015780601f106109d657610100808354040283529160200191610a01565b820191906000526020600020905b8154815290600101906020018083116109e457829003601f168201915b50505050508152602001600282018054610a1a906114b2565b80601f0160208091040260200160405190810160405280929190818152602001828054610a46906114b2565b8015610a935780601f10610a6857610100808354040283529160200191610a93565b820191906000526020600020905b815481529060010190602001808311610a7657829003601f168201915b5050505050815260200160038201805480602002602001604051908101604052809291908181526020018280548015610aeb57602002820191906000526020600020905b815481526020019060010190808311610ad7575b505050505081525050815260200190600101906108c3565b50505050815250509050919050565b60045481565b828054828255906000526020600020908101928215610b54579160200282015b82811115610b53578251825591602001919060010190610b38565b5b509050610b619190610b94565b5090565b6040518060a0016040528060608152602001606081526020016060815260200160608152602001606081525090565b5b80821115610bad576000816000905550600101610b95565b5090565b6000604051905090565b600080fd5b600080fd5b600080fd5b600080fd5b6000601f19601f8301169050919050565b7f4e487b7100000000000000000000000000000000000000000000000000000000600052604160045260246000fd5b610c1882610bcf565b810181811067ffffffffffffffff82111715610c3757610c36610be0565b5b80604052505050565b6000610c4a610bb1565b9050610c568282610c0f565b919050565b600067ffffffffffffffff821115610c7657610c75610be0565b5b610c7f82610bcf565b9050602081019050919050565b82818337600083830152505050565b6000610cae610ca984610c5b565b610c40565b905082815260208101848484011115610cca57610cc9610bca565b5b610cd5848285610c8c565b509392505050565b600082601f830112610cf257610cf1610bc5565b5b8135610d02848260208601610c9b565b91505092915050565b60008060008060808587031215610d2557610d24610bbb565b5b600085013567ffffffffffffffff811115610d4357610d42610bc0565b5b610d4f87828801610cdd565b945050602085013567ffffffffffffffff811115610d7057610d6f610bc0565b5b610d7c87828801610cdd565b935050604085013567ffffffffffffffff811115610d9d57610d9c610bc0565b5b610da987828801610cdd565b925050606085013567ffffffffffffffff811115610dca57610dc9610bc0565b5b610dd687828801610cdd565b91505092959194509250565b600067ffffffffffffffff821115610dfd57610dfc610be0565b5b602082029050602081019050919050565b600080fd5b6000819050919050565b610e2681610e13565b8114610e3157600080fd5b50565b600081359050610e4381610e1d565b92915050565b6000610e5c610e5784610de2565b610c40565b90508083825260208201905060208402830185811115610e7f57610e7e610e0e565b5b835b81811015610ea85780610e948882610e34565b845260208401935050602081019050610e81565b5050509392505050565b600082601f830112610ec757610ec6610bc5565b5b8135610ed7848260208601610e49565b91505092915050565b600080600080600060a08688031215610efc57610efb610bbb565b5b600086013567ffffffffffffffff811115610f1a57610f19610bc0565b5b610f2688828901610cdd565b955050602086013567ffffffffffffffff811115610f4757610f46610bc0565b5b610f5388828901610cdd565b945050604086013567ffffffffffffffff811115610f7457610f73610bc0565b5b610f8088828901610cdd565b935050606086013567ffffffffffffffff811115610fa157610fa0610bc0565b5b610fad88828901610cdd565b925050608086013567ffffffffffffffff811115610fce57610fcd610bc0565b5b610fda88828901610eb2565b9150509295509295909350565b600060208284031215610ffd57610ffc610bbb565b5b600082013567ffffffffffffffff81111561101b5761101a610bc0565b5b61102784828501610cdd565b91505092915050565b600081519050919050565b600082825260208201905092915050565b60005b8381101561106a57808201518184015260208101905061104f565b60008484015250505050565b600061108182611030565b61108b818561103b565b935061109b81856020860161104c565b6110a481610bcf565b840191505092915050565b600060808201905081810360008301526110c98187611076565b905081810360208301526110dd8186611076565b905081810360408301526110f18185611076565b905081810360608301526111058184611076565b905095945050505050565b600082825260208201905092915050565b600061112c82611030565b6111368185611110565b935061114681856020860161104c565b61114f81610bcf565b840191505092915050565b600081519050919050565b600082825260208201905092915050565b6000819050602082019050919050565b600081519050919050565b600082825260208201905092915050565b6000819050602082019050919050565b6111bb81610e13565b82525050565b60006111cd83836111b2565b60208301905092915050565b6000602082019050919050565b60006111f182611186565b6111fb8185611191565b9350611206836111a2565b8060005b8381101561123757815161121e88826111c1565b9750611229836111d9565b92505060018101905061120a565b5085935050505092915050565b600060808301600083015184820360008601526112618282611121565b9150506020830151848203602086015261127b8282611121565b915050604083015184820360408601526112958282611121565b915050606083015184820360608601526112af82826111e6565b9150508091505092915050565b60006112c88383611244565b905092915050565b6000602082019050919050565b60006112e88261115a565b6112f28185611165565b93508360208202850161130485611176565b8060005b85811015611340578484038952815161132185826112bc565b945061132c836112d0565b925060208a01995050600181019050611308565b50829750879550505050505092915050565b600060a083016000830151848203600086015261136f8282611121565b915050602083015184820360208601526113898282611121565b915050604083015184820360408601526113a38282611121565b915050606083015184820360608601526113bd8282611121565b915050608083015184820360808601526113d782826112dd565b9150508091505092915050565b600060208201905081810360008301526113fe8184611352565b905092915050565b61140f81610e13565b82525050565b600060208201905061142a6000830184611406565b92915050565b600081905092915050565b600061144682611030565b6114508185611430565b935061146081856020860161104c565b80840191505092915050565b6000611478828461143b565b915081905092915050565b7f4e487b7100000000000000000000000000000000000000000000000000000000600052602260045260246000fd5b600060028204905060018216806114ca57607f821691505b6020821081036114dd576114dc611483565b5b50919050565b60008190508160005260206000209050919050565b60006020601f8301049050919050565b600082821b905092915050565b6000600883026115457fffffffffffffffffffffffffffffffffffffffffffffffffffffffffffffffff82611508565b61154f8683611508565b95508019841693508086168417925050509392505050565b6000819050919050565b600061158c61158761158284610e13565b611567565b610e13565b9050919050565b6000819050919050565b6115a683611571565b6115ba6115b282611593565b848454611515565b825550505050565b600090565b6115cf6115c2565b6115da81848461159d565b505050565b5b818110156115fe576115f36000826115c7565b6001810190506115e0565b5050565b601f82111561164357611614816114e3565b61161d846114f8565b8101602085101561162c578190505b611640611638856114f8565b8301826115df565b50505b505050565b600082821c905092915050565b600061166660001984600802611648565b1980831691505092915050565b600061167f8383611655565b9150826002028217905092915050565b61169882611030565b67ffffffffffffffff8111156116b1576116b0610be0565b5b6116bb82546114b2565b6116c6828285611602565b600060209050601f8311600181146116f957600084156116e7578287015190505b6116f18582611673565b865550611759565b601f198416611707866114e3565b60005b8281101561172f5784890151825560018201915060208501945060208101905061170a565b8683101561174c5784890151611748601f891682611655565b8355505b6001600288020188555050505b505050505050565b7f4e487b7100000000000000000000000000000000000000000000000000000000600052601160045260246000fd5b600061179b82610e13565b91507fffffffffffffffffffffffffffffffffffffffffffffffffffffffffffffffff82036117cd576117cc611761565b5b600182019050919050565b600060408201905081810360008301526117f28185611076565b905081810360208301526118068184611076565b90509392505050565b60008190508160005260206000209050919050565b60008154611831816114b2565b61183b8186611430565b94506001821660008114611856576001811461186b5761189e565b60ff198316865281151582028601935061189e565b6118748561180f565b60005b8381101561189657815481890152600182019150602081019050611877565b838801955050505b50505092915050565b60006118b38284611824565b915081905092915050565b600081546118cb816114b2565b6118d5818661103b565b945060018216600081146118f0576001811461190657611939565b60ff198316865281151560200286019350611939565b61190f8561180f565b60005b8381101561193157815481890152600182019150602081019050611912565b808801955050505b50505092915050565b6000608083016000830151848203600086015261195f8282611121565b915050602083015184820360208601526119798282611121565b915050604083015184820360408601526119938282611121565b915050606083015184820360608601526119ad82826111e6565b9150508091505092915050565b600060408201905081810360008301526119d481856118be565b905081810360208301526119e88184611942565b9050939250505056fea264697066735822122080f6ad5f88edefea70d9fc7f1f39961da297ac2652113c9f66081c5a768aed5964736f6c63430008180033",
  "linkReferences": {},
  "deployedLinkReferences": {}
}