{
  "_format": "hh-sol-artifact-1",
  "contractName": "StudentManagementSystem",
  "sourceName": "contracts/StudentManagementSystem.sol",
  "abi": [
    {
      "anonymous": false,
      "inputs": [
        {
          "indexed": false,
          "internalType": "string",
          "name": "_cni",
          "type": "string"
        },
        {
          "components": [
            {
              "internalType": "string",
              "name": "schoolName",
              "type": "string"
            },
            {
              "internalType": "string",
              "name": "degreeType",
              "type": "string"
            },
            {
              "internalType": "string",
              "name": "major",
              "type": "string"
            },
            {
              "internalType": "uint256[]",
              "name": "scores",
              "type": "uint256[]"
            }
          ],
          "indexed": false,
          "internalType": "struct StudentManagementSystem.Degree",
          "name": "degree",
          "type": "tuple"
        }
      ],
      "name": "DegreeAdded",
      "type": "event"
    },
    {
      "anonymous": false,
      "inputs": [
        {
          "indexed": false,
          "internalType": "string",
          "name": "_cni",
          "type": "string"
        },
        {
          "indexed": false,
          "internalType": "string",
          "name": "name",
          "type": "string"
        }
      ],
      "name": "StudentRegistered",
      "type": "event"
    },
    {
      "inputs": [
        {
          "internalType": "string",
          "name": "cne",
          "type": "string"
        },
        {
          "internalType": "string",
          "name": "_schoolName",
          "type": "string"
        },
        {
          "internalType": "string",
          "name": "_degreeType",
          "type": "string"
        },
        {
          "internalType": "string",
          "name": "_major",
          "type": "string"
        },
        {
          "internalType": "uint256[]",
          "name": "_scores",
          "type": "uint256[]"
        }
      ],
      "name": "addDegree",
      "outputs": [],
      "stateMutability": "nonpayable",
      "type": "function"
    },
    {
      "inputs": [
        {
          "internalType": "string",
          "name": "_cni",
          "type": "string"
        }
      ],
      "name": "getStudent",
      "outputs": [
        {
          "internalType": "string",
          "name": "",
          "type": "string"
        },
        {
          "internalType": "string",
          "name": "",
          "type": "string"
        },
        {
          "internalType": "string",
          "name": "",
          "type": "string"
        },
        {
          "internalType": "string",
          "name": "",
          "type": "string"
        },
        {
          "internalType": "string",
          "name": "",
          "type": "string"
        },
        {
          "internalType": "string",
          "name": "",
          "type": "string"
        },
        {
          "internalType": "string",
          "name": "",
          "type": "string"
        },
        {
          "internalType": "uint256[]",
          "name": "",
          "type": "uint256[]"
        }
      ],
      "stateMutability": "view",
      "type": "function"
    },
    {
      "inputs": [
        {
          "internalType": "string",
          "name": "_cni",
          "type": "string"
        },
        {
          "internalType": "string",
          "name": "_cne",
          "type": "string"
        },
        {
          "internalType": "string",
          "name": "email",
          "type": "string"
        },
        {
          "internalType": "string",
          "name": "_name",
          "type": "string"
        }
      ],
      "name": "registerStudent",
      "outputs": [],
      "stateMutability": "nonpayable",
      "type": "function"
    },
    {
      "inputs": [],
      "name": "studentCount",
      "outputs": [
        {
          "internalType": "uint256",
          "name": "",
          "type": "uint256"
        }
      ],
      "stateMutability": "view",
      "type": "function"
    },
    {
      "inputs": [
        {
          "internalType": "string",
          "name": "",
          "type": "string"
        }
      ],
      "name": "students",
      "outputs": [
        {
          "internalType": "string",
          "name": "cni",
          "type": "string"
        },
        {
          "internalType": "string",
          "name": "cne",
          "type": "string"
        },
        {
          "internalType": "string",
          "name": "name",
          "type": "string"
        },
        {
          "internalType": "string",
          "name": "email",
          "type": "string"
        }
      ],
      "stateMutability": "view",
      "type": "function"
    }
  ],
  "bytecode": "0x608060405234801561001057600080fd5b50611a25806100206000396000f3fe608060405234801561001057600080fd5b50600436106100575760003560e01c806359ab90711461005c5780635e08153c14610078578063c7ef6bfb14610094578063d0296612146100c7578063e581f9ee146100fe575b600080fd5b61007660048036038101906100719190610da3565b61011c565b005b610092600480360381019061008d9190610f78565b610277565b005b6100ae60048036038101906100a9919061107f565b6103c6565b6040516100be9493929190611147565b60405180910390f35b6100e160048036038101906100dc919061107f565b61062c565b6040516100f5989796959493929190611266565b60405180910390f35b610106610bd9565b604051610113919061132b565b60405180910390f35b6000808560405161012d9190611382565b908152602001604051809103902090508481600001908161014e91906115a5565b508381600101908161016091906115a5565b508281600301908161017291906115a5565b508181600201908161018491906115a5565b50846001856040516101969190611382565b908152602001604051809103902090816101b091906115a5565b5060016002866040516101c39190611382565b908152602001604051809103902060006101000a81548160ff02191690831515021790555060016003856040516101fa9190611382565b908152602001604051809103902060006101000a81548160ff02191690831515021790555060046000815480929190610232906116a6565b91905055507f99de9e27b7501a37ca6980ff5a350f85ee64d5242f63c8db6354390ff1bf377985836040516102689291906116ee565b60405180910390a15050505050565b60006001866040516102899190611382565b908152602001604051809103902090506000816040516102a991906117bd565b90815260200160405180910390206004016040518060800160405280878152602001868152602001858152602001848152509080600181540180825580915050600190039060005260206000209060040201600090919091909150600082015181600001908161031991906115a5565b50602082015181600101908161032f91906115a5565b50604082015181600201908161034591906115a5565b506060820151816003019080519060200190610362929190610bdf565b5050507f1c8028408aedc23d9e9bc8c740e21f8300d0237554bc6b3af1cb41835f284f96816040518060800160405280888152602001878152602001868152602001858152506040516103b6929190611989565b60405180910390a1505050505050565b6000818051602081018201805184825260208301602085012081835280955050505050506000915090508060000180546103ff906113c8565b80601f016020809104026020016040519081016040528092919081815260200182805461042b906113c8565b80156104785780601f1061044d57610100808354040283529160200191610478565b820191906000526020600020905b81548152906001019060200180831161045b57829003601f168201915b50505050509080600101805461048d906113c8565b80601f01602080910402602001604051908101604052809291908181526020018280546104b9906113c8565b80156105065780601f106104db57610100808354040283529160200191610506565b820191906000526020600020905b8154815290600101906020018083116104e957829003601f168201915b50505050509080600201805461051b906113c8565b80601f0160208091040260200160405190810160405280929190818152602001828054610547906113c8565b80156105945780601f1061056957610100808354040283529160200191610594565b820191906000526020600020905b81548152906001019060200180831161057757829003601f168201915b5050505050908060030180546105a9906113c8565b80601f01602080910402602001604051908101604052809291908181526020018280546105d5906113c8565b80156106225780601f106105f757610100808354040283529160200191610622565b820191906000526020600020905b81548152906001019060200180831161060557829003601f168201915b5050505050905084565b6060806060806060806060806000808a6040516106499190611382565b90815260200160405180910390206040518060a0016040529081600082018054610672906113c8565b80601f016020809104026020016040519081016040528092919081815260200182805461069e906113c8565b80156106eb5780601f106106c0576101008083540402835291602001916106eb565b820191906000526020600020905b8154815290600101906020018083116106ce57829003601f168201915b50505050508152602001600182018054610704906113c8565b80601f0160208091040260200160405190810160405280929190818152602001828054610730906113c8565b801561077d5780601f106107525761010080835404028352916020019161077d565b820191906000526020600020905b81548152906001019060200180831161076057829003601f168201915b50505050508152602001600282018054610796906113c8565b80601f01602080910402602001604051908101604052809291908181526020018280546107c2906113c8565b801561080f5780601f106107e45761010080835404028352916020019161080f565b820191906000526020600020905b8154815290600101906020018083116107f257829003601f168201915b50505050508152602001600382018054610828906113c8565b80601f0160208091040260200160405190810160405280929190818152602001828054610854906113c8565b80156108a15780601f10610876576101008083540402835291602001916108a1565b820191906000526020600020905b81548152906001019060200180831161088457829003601f168201915b5050505050815260200160048201805480602002602001604051908101604052809291908181526020016000905b82821015610b0f5783829060005260206000209060040201604051806080016040529081600082018054610902906113c8565b80601f016020809104026020016040519081016040528092919081815260200182805461092e906113c8565b801561097b5780601f106109505761010080835404028352916020019161097b565b820191906000526020600020905b81548152906001019060200180831161095e57829003601f168201915b50505050508152602001600182018054610994906113c8565b80601f01602080910402602001604051908101604052809291908181526020018280546109c0906113c8565b8015610a0d5780601f106109e257610100808354040283529160200191610a0d565b820191906000526020600020905b8154815290600101906020018083116109f057829003601f168201915b50505050508152602001600282018054610a26906113c8565b80601f0160208091040260200160405190810160405280929190818152602001828054610a52906113c8565b8015610a9f5780601f10610a7457610100808354040283529160200191610a9f565b820191906000526020600020905b815481529060010190602001808311610a8257829003601f168201915b5050505050815260200160038201805480602002602001604051908101604052809291908181526020018280548015610af757602002820191906000526020600020905b815481526020019060010190808311610ae3575b505050505081525050815260200190600101906108cf565b5050505081525050905080600001518160200151826040015183606001518460800151600081518110610b4557610b446119c0565b5b6020026020010151602001518560800151600081518110610b6957610b686119c0565b5b6020026020010151600001518660800151600081518110610b8d57610b8c6119c0565b5b6020026020010151604001518760800151600081518110610bb157610bb06119c0565b5b6020026020010151606001519850985098509850985098509850985050919395975091939597565b60045481565b828054828255906000526020600020908101928215610c1b579160200282015b82811115610c1a578251825591602001919060010190610bff565b5b509050610c289190610c2c565b5090565b5b80821115610c45576000816000905550600101610c2d565b5090565b6000604051905090565b600080fd5b600080fd5b600080fd5b600080fd5b6000601f19601f8301169050919050565b7f4e487b7100000000000000000000000000000000000000000000000000000000600052604160045260246000fd5b610cb082610c67565b810181811067ffffffffffffffff82111715610ccf57610cce610c78565b5b80604052505050565b6000610ce2610c49565b9050610cee8282610ca7565b919050565b600067ffffffffffffffff821115610d0e57610d0d610c78565b5b610d1782610c67565b9050602081019050919050565b82818337600083830152505050565b6000610d46610d4184610cf3565b610cd8565b905082815260208101848484011115610d6257610d61610c62565b5b610d6d848285610d24565b509392505050565b600082601f830112610d8a57610d89610c5d565b5b8135610d9a848260208601610d33565b91505092915050565b60008060008060808587031215610dbd57610dbc610c53565b5b600085013567ffffffffffffffff811115610ddb57610dda610c58565b5b610de787828801610d75565b945050602085013567ffffffffffffffff811115610e0857610e07610c58565b5b610e1487828801610d75565b935050604085013567ffffffffffffffff811115610e3557610e34610c58565b5b610e4187828801610d75565b925050606085013567ffffffffffffffff811115610e6257610e61610c58565b5b610e6e87828801610d75565b91505092959194509250565b600067ffffffffffffffff821115610e9557610e94610c78565b5b602082029050602081019050919050565b600080fd5b6000819050919050565b610ebe81610eab565b8114610ec957600080fd5b50565b600081359050610edb81610eb5565b92915050565b6000610ef4610eef84610e7a565b610cd8565b90508083825260208201905060208402830185811115610f1757610f16610ea6565b5b835b81811015610f405780610f2c8882610ecc565b845260208401935050602081019050610f19565b5050509392505050565b600082601f830112610f5f57610f5e610c5d565b5b8135610f6f848260208601610ee1565b91505092915050565b600080600080600060a08688031215610f9457610f93610c53565b5b600086013567ffffffffffffffff811115610fb257610fb1610c58565b5b610fbe88828901610d75565b955050602086013567ffffffffffffffff811115610fdf57610fde610c58565b5b610feb88828901610d75565b945050604086013567ffffffffffffffff81111561100c5761100b610c58565b5b61101888828901610d75565b935050606086013567ffffffffffffffff81111561103957611038610c58565b5b61104588828901610d75565b925050608086013567ffffffffffffffff81111561106657611065610c58565b5b61107288828901610f4a565b9150509295509295909350565b60006020828403121561109557611094610c53565b5b600082013567ffffffffffffffff8111156110b3576110b2610c58565b5b6110bf84828501610d75565b91505092915050565b600081519050919050565b600082825260208201905092915050565b60005b838110156111025780820151818401526020810190506110e7565b60008484015250505050565b6000611119826110c8565b61112381856110d3565b93506111338185602086016110e4565b61113c81610c67565b840191505092915050565b60006080820190508181036000830152611161818761110e565b90508181036020830152611175818661110e565b90508181036040830152611189818561110e565b9050818103606083015261119d818461110e565b905095945050505050565b600081519050919050565b600082825260208201905092915050565b6000819050602082019050919050565b6111dd81610eab565b82525050565b60006111ef83836111d4565b60208301905092915050565b6000602082019050919050565b6000611213826111a8565b61121d81856111b3565b9350611228836111c4565b8060005b8381101561125957815161124088826111e3565b975061124b836111fb565b92505060018101905061122c565b5085935050505092915050565b6000610100820190508181036000830152611281818b61110e565b90508181036020830152611295818a61110e565b905081810360408301526112a9818961110e565b905081810360608301526112bd818861110e565b905081810360808301526112d1818761110e565b905081810360a08301526112e5818661110e565b905081810360c08301526112f9818561110e565b905081810360e083015261130d8184611208565b90509998505050505050505050565b61132581610eab565b82525050565b6000602082019050611340600083018461131c565b92915050565b600081905092915050565b600061135c826110c8565b6113668185611346565b93506113768185602086016110e4565b80840191505092915050565b600061138e8284611351565b915081905092915050565b7f4e487b7100000000000000000000000000000000000000000000000000000000600052602260045260246000fd5b600060028204905060018216806113e057607f821691505b6020821081036113f3576113f2611399565b5b50919050565b60008190508160005260206000209050919050565b60006020601f8301049050919050565b600082821b905092915050565b60006008830261145b7fffffffffffffffffffffffffffffffffffffffffffffffffffffffffffffffff8261141e565b611465868361141e565b95508019841693508086168417925050509392505050565b6000819050919050565b60006114a261149d61149884610eab565b61147d565b610eab565b9050919050565b6000819050919050565b6114bc83611487565b6114d06114c8826114a9565b84845461142b565b825550505050565b600090565b6114e56114d8565b6114f08184846114b3565b505050565b5b81811015611514576115096000826114dd565b6001810190506114f6565b5050565b601f8211156115595761152a816113f9565b6115338461140e565b81016020851015611542578190505b61155661154e8561140e565b8301826114f5565b50505b505050565b600082821c905092915050565b600061157c6000198460080261155e565b1980831691505092915050565b6000611595838361156b565b9150826002028217905092915050565b6115ae826110c8565b67ffffffffffffffff8111156115c7576115c6610c78565b5b6115d182546113c8565b6115dc828285611518565b600060209050601f83116001811461160f57600084156115fd578287015190505b6116078582611589565b86555061166f565b601f19841661161d866113f9565b60005b8281101561164557848901518255600182019150602085019450602081019050611620565b86831015611662578489015161165e601f89168261156b565b8355505b6001600288020188555050505b505050505050565b7f4e487b7100000000000000000000000000000000000000000000000000000000600052601160045260246000fd5b60006116b182610eab565b91507fffffffffffffffffffffffffffffffffffffffffffffffffffffffffffffffff82036116e3576116e2611677565b5b600182019050919050565b60006040820190508181036000830152611708818561110e565b9050818103602083015261171c818461110e565b90509392505050565b60008190508160005260206000209050919050565b60008154611747816113c8565b6117518186611346565b9450600182166000811461176c5760018114611781576117b4565b60ff19831686528115158202860193506117b4565b61178a85611725565b60005b838110156117ac5781548189015260018201915060208101905061178d565b838801955050505b50505092915050565b60006117c9828461173a565b915081905092915050565b600081546117e1816113c8565b6117eb81866110d3565b94506001821660008114611806576001811461181c5761184f565b60ff19831686528115156020028601935061184f565b61182585611725565b60005b8381101561184757815481890152600182019150602081019050611828565b808801955050505b50505092915050565b600082825260208201905092915050565b6000611874826110c8565b61187e8185611858565b935061188e8185602086016110e4565b61189781610c67565b840191505092915050565b600082825260208201905092915050565b60006118be826111a8565b6118c881856118a2565b93506118d3836111c4565b8060005b838110156119045781516118eb88826111e3565b97506118f6836111fb565b9250506001810190506118d7565b5085935050505092915050565b6000608083016000830151848203600086015261192e8282611869565b915050602083015184820360208601526119488282611869565b915050604083015184820360408601526119628282611869565b9150506060830151848203606086015261197c82826118b3565b9150508091505092915050565b600060408201905081810360008301526119a381856117d4565b905081810360208301526119b78184611911565b90509392505050565b7f4e487b7100000000000000000000000000000000000000000000000000000000600052603260045260246000fdfea2646970667358221220cf51f2c14687e4f1c2a8134b66d43e4635d2f3e426f1203945f7a2d63668875a64736f6c63430008180033",
  "linkReferences": {},
  "deployedLinkReferences": {}
}