{
  "_format": "hh-sol-artifact-1",
  "contractName": "GouvernementSystem",
  "sourceName": "contracts/GouvernementSystem.sol",
  "abi": [
    {
      "anonymous": false,
      "inputs": [
        {
          "indexed": false,
          "internalType": "string",
          "name": "_cni",
          "type": "string"
        },
        {
          "indexed": false,
          "internalType": "string",
          "name": "name",
          "type": "string"
        }
      ],
      "name": "UserRegistered",
      "type": "event"
    },
    {
      "inputs": [
        {
          "internalType": "string",
          "name": "_cne",
          "type": "string"
        }
      ],
      "name": "getUser",
      "outputs": [
        {
          "internalType": "string",
          "name": "",
          "type": "string"
        },
        {
          "internalType": "string",
          "name": "",
          "type": "string"
        },
        {
          "internalType": "string",
          "name": "",
          "type": "string"
        },
        {
          "internalType": "string",
          "name": "",
          "type": "string"
        }
      ],
      "stateMutability": "view",
      "type": "function"
    },
    {
      "inputs": [
        {
          "internalType": "string",
          "name": "_cni",
          "type": "string"
        },
        {
          "internalType": "string",
          "name": "_cne",
          "type": "string"
        },
        {
          "internalType": "string",
          "name": "_email",
          "type": "string"
        },
        {
          "internalType": "string",
          "name": "_name",
          "type": "string"
        }
      ],
      "name": "registerUser",
      "outputs": [],
      "stateMutability": "nonpayable",
      "type": "function"
    },
    {
      "inputs": [],
      "name": "userCount",
      "outputs": [
        {
          "internalType": "uint256",
          "name": "",
          "type": "uint256"
        }
      ],
      "stateMutability": "view",
      "type": "function"
    },
    {
      "inputs": [
        {
          "internalType": "string",
          "name": "",
          "type": "string"
        }
      ],
      "name": "users",
      "outputs": [
        {
          "internalType": "string",
          "name": "cni",
          "type": "string"
        },
        {
          "internalType": "string",
          "name": "cne",
          "type": "string"
        },
        {
          "internalType": "string",
          "name": "name",
          "type": "string"
        },
        {
          "internalType": "string",
          "name": "email",
          "type": "string"
        }
      ],
      "stateMutability": "view",
      "type": "function"
    }
  ],
  "bytecode": "0x608060405234801561001057600080fd5b50610e5f806100206000396000f3fe608060405234801561001057600080fd5b506004361061004c5760003560e01c806307973ccf1461005157806331feb6711461006f578063689e1c03146100a257806393e54a56146100d5575b600080fd5b6100596100f1565b60405161006691906106d5565b60405180910390f35b6100896004803603810190610084919061084a565b6100f7565b6040516100999493929190610912565b60405180910390f35b6100bc60048036038101906100b7919061084a565b610395565b6040516100cc9493929190610912565b60405180910390f35b6100ef60048036038101906100ea9190610973565b6105fb565b005b60025481565b6060806060806000808660405161010e9190610a86565b908152602001604051809103902060405180608001604052908160008201805461013790610acc565b80601f016020809104026020016040519081016040528092919081815260200182805461016390610acc565b80156101b05780601f10610185576101008083540402835291602001916101b0565b820191906000526020600020905b81548152906001019060200180831161019357829003601f168201915b505050505081526020016001820180546101c990610acc565b80601f01602080910402602001604051908101604052809291908181526020018280546101f590610acc565b80156102425780601f1061021757610100808354040283529160200191610242565b820191906000526020600020905b81548152906001019060200180831161022557829003601f168201915b5050505050815260200160028201805461025b90610acc565b80601f016020809104026020016040519081016040528092919081815260200182805461028790610acc565b80156102d45780601f106102a9576101008083540402835291602001916102d4565b820191906000526020600020905b8154815290600101906020018083116102b757829003601f168201915b505050505081526020016003820180546102ed90610acc565b80601f016020809104026020016040519081016040528092919081815260200182805461031990610acc565b80156103665780601f1061033b57610100808354040283529160200191610366565b820191906000526020600020905b81548152906001019060200180831161034957829003601f168201915b505050505081525050905080600001518160200151826040015183606001519450945094509450509193509193565b6000818051602081018201805184825260208301602085012081835280955050505050506000915090508060000180546103ce90610acc565b80601f01602080910402602001604051908101604052809291908181526020018280546103fa90610acc565b80156104475780601f1061041c57610100808354040283529160200191610447565b820191906000526020600020905b81548152906001019060200180831161042a57829003601f168201915b50505050509080600101805461045c90610acc565b80601f016020809104026020016040519081016040528092919081815260200182805461048890610acc565b80156104d55780601f106104aa576101008083540402835291602001916104d5565b820191906000526020600020905b8154815290600101906020018083116104b857829003601f168201915b5050505050908060020180546104ea90610acc565b80601f016020809104026020016040519081016040528092919081815260200182805461051690610acc565b80156105635780601f1061053857610100808354040283529160200191610563565b820191906000526020600020905b81548152906001019060200180831161054657829003601f168201915b50505050509080600301805461057890610acc565b80601f01602080910402602001604051908101604052809291908181526020018280546105a490610acc565b80156105f15780601f106105c6576101008083540402835291602001916105f1565b820191906000526020600020905b8154815290600101906020018083116105d457829003601f168201915b5050505050905084565b6000808460405161060c9190610a86565b908152602001604051809103902090508481600001908161062d9190610ca9565b508381600101908161063f9190610ca9565b50828160030190816106519190610ca9565b50818160020190816106639190610ca9565b506002600081548092919061067790610daa565b91905055507f996d7324173609959370942b1ee1b743dc623b3d50459e66c1d55df55e5a9f3784836040516106ad929190610df2565b60405180910390a15050505050565b6000819050919050565b6106cf816106bc565b82525050565b60006020820190506106ea60008301846106c6565b92915050565b6000604051905090565b600080fd5b600080fd5b600080fd5b600080fd5b6000601f19601f8301169050919050565b7f4e487b7100000000000000000000000000000000000000000000000000000000600052604160045260246000fd5b6107578261070e565b810181811067ffffffffffffffff821117156107765761077561071f565b5b80604052505050565b60006107896106f0565b9050610795828261074e565b919050565b600067ffffffffffffffff8211156107b5576107b461071f565b5b6107be8261070e565b9050602081019050919050565b82818337600083830152505050565b60006107ed6107e88461079a565b61077f565b90508281526020810184848401111561080957610808610709565b5b6108148482856107cb565b509392505050565b600082601f83011261083157610830610704565b5b81356108418482602086016107da565b91505092915050565b6000602082840312156108605761085f6106fa565b5b600082013567ffffffffffffffff81111561087e5761087d6106ff565b5b61088a8482850161081c565b91505092915050565b600081519050919050565b600082825260208201905092915050565b60005b838110156108cd5780820151818401526020810190506108b2565b60008484015250505050565b60006108e482610893565b6108ee818561089e565b93506108fe8185602086016108af565b6109078161070e565b840191505092915050565b6000608082019050818103600083015261092c81876108d9565b9050818103602083015261094081866108d9565b9050818103604083015261095481856108d9565b9050818103606083015261096881846108d9565b905095945050505050565b6000806000806080858703121561098d5761098c6106fa565b5b600085013567ffffffffffffffff8111156109ab576109aa6106ff565b5b6109b78782880161081c565b945050602085013567ffffffffffffffff8111156109d8576109d76106ff565b5b6109e48782880161081c565b935050604085013567ffffffffffffffff811115610a0557610a046106ff565b5b610a118782880161081c565b925050606085013567ffffffffffffffff811115610a3257610a316106ff565b5b610a3e8782880161081c565b91505092959194509250565b600081905092915050565b6000610a6082610893565b610a6a8185610a4a565b9350610a7a8185602086016108af565b80840191505092915050565b6000610a928284610a55565b915081905092915050565b7f4e487b7100000000000000000000000000000000000000000000000000000000600052602260045260246000fd5b60006002820490506001821680610ae457607f821691505b602082108103610af757610af6610a9d565b5b50919050565b60008190508160005260206000209050919050565b60006020601f8301049050919050565b600082821b905092915050565b600060088302610b5f7fffffffffffffffffffffffffffffffffffffffffffffffffffffffffffffffff82610b22565b610b698683610b22565b95508019841693508086168417925050509392505050565b6000819050919050565b6000610ba6610ba1610b9c846106bc565b610b81565b6106bc565b9050919050565b6000819050919050565b610bc083610b8b565b610bd4610bcc82610bad565b848454610b2f565b825550505050565b600090565b610be9610bdc565b610bf4818484610bb7565b505050565b5b81811015610c1857610c0d600082610be1565b600181019050610bfa565b5050565b601f821115610c5d57610c2e81610afd565b610c3784610b12565b81016020851015610c46578190505b610c5a610c5285610b12565b830182610bf9565b50505b505050565b600082821c905092915050565b6000610c8060001984600802610c62565b1980831691505092915050565b6000610c998383610c6f565b9150826002028217905092915050565b610cb282610893565b67ffffffffffffffff811115610ccb57610cca61071f565b5b610cd58254610acc565b610ce0828285610c1c565b600060209050601f831160018114610d135760008415610d01578287015190505b610d0b8582610c8d565b865550610d73565b601f198416610d2186610afd565b60005b82811015610d4957848901518255600182019150602085019450602081019050610d24565b86831015610d665784890151610d62601f891682610c6f565b8355505b6001600288020188555050505b505050505050565b7f4e487b7100000000000000000000000000000000000000000000000000000000600052601160045260246000fd5b6000610db5826106bc565b91507fffffffffffffffffffffffffffffffffffffffffffffffffffffffffffffffff8203610de757610de6610d7b565b5b600182019050919050565b60006040820190508181036000830152610e0c81856108d9565b90508181036020830152610e2081846108d9565b9050939250505056fea2646970667358221220ac17c19035b59c1b570c8e6bfa694c55aac79feb6562a2f09bb14b5fb240780164736f6c63430008180033",
  "linkReferences": {},
  "deployedLinkReferences": {}
}