{
  "_format": "hh-sol-artifact-1",
  "contractName": "AcceptedSystem",
  "sourceName": "contracts/AcceptedSystem.sol",
  "abi": [
    {
      "anonymous": false,
      "inputs": [
        {
          "indexed": false,
          "internalType": "string",
          "name": "_cni",
          "type": "string"
        },
        {
          "indexed": false,
          "internalType": "string",
          "name": "name",
          "type": "string"
        }
      ],
      "name": "UserRegistered",
      "type": "event"
    },
    {
      "inputs": [
        {
          "internalType": "string",
          "name": "_cni",
          "type": "string"
        }
      ],
      "name": "getUser",
      "outputs": [
        {
          "components": [
            {
              "internalType": "string",
              "name": "cni",
              "type": "string"
            },
            {
              "internalType": "string",
              "name": "cne",
              "type": "string"
            },
            {
              "internalType": "string",
              "name": "name",
              "type": "string"
            },
            {
              "internalType": "string",
              "name": "email",
              "type": "string"
            },
            {
              "internalType": "string",
              "name": "major",
              "type": "string"
            }
          ],
          "internalType": "struct AcceptedSystem.User",
          "name": "",
          "type": "tuple"
        }
      ],
      "stateMutability": "view",
      "type": "function"
    },
    {
      "inputs": [
        {
          "internalType": "string",
          "name": "_cni",
          "type": "string"
        },
        {
          "internalType": "string",
          "name": "_cne",
          "type": "string"
        },
        {
          "internalType": "string",
          "name": "_email",
          "type": "string"
        },
        {
          "internalType": "string",
          "name": "_name",
          "type": "string"
        },
        {
          "internalType": "string",
          "name": "_major",
          "type": "string"
        }
      ],
      "name": "registerUser",
      "outputs": [],
      "stateMutability": "nonpayable",
      "type": "function"
    },
    {
      "inputs": [],
      "name": "userCount",
      "outputs": [
        {
          "internalType": "uint256",
          "name": "",
          "type": "uint256"
        }
      ],
      "stateMutability": "view",
      "type": "function"
    },
    {
      "inputs": [
        {
          "internalType": "string",
          "name": "",
          "type": "string"
        }
      ],
      "name": "users",
      "outputs": [
        {
          "internalType": "string",
          "name": "cni",
          "type": "string"
        },
        {
          "internalType": "string",
          "name": "cne",
          "type": "string"
        },
        {
          "internalType": "string",
          "name": "name",
          "type": "string"
        },
        {
          "internalType": "string",
          "name": "email",
          "type": "string"
        },
        {
          "internalType": "string",
          "name": "major",
          "type": "string"
        }
      ],
      "stateMutability": "view",
      "type": "function"
    }
  ],
  "bytecode": "0x608060405234801561001057600080fd5b50611332806100206000396000f3fe608060405234801561001057600080fd5b506004361061004c5760003560e01c806307973ccf1461005157806331feb6711461006f578063689e1c031461009f578063ac9f0a40146100d3575b600080fd5b6100596100ef565b604051610066919061098d565b60405180910390f35b61008960048036038101906100849190610b02565b6100f5565b6040516100969190610c5c565b60405180910390f35b6100b960048036038101906100b49190610b02565b610407565b6040516100ca959493929190610cc8565b60405180910390f35b6100ed60048036038101906100e89190610d3e565b6106fb565b005b60045481565b6100fd610945565b60008260405161010d9190610e81565b90815260200160405180910390206040518060a001604052908160008201805461013690610ec7565b80601f016020809104026020016040519081016040528092919081815260200182805461016290610ec7565b80156101af5780601f10610184576101008083540402835291602001916101af565b820191906000526020600020905b81548152906001019060200180831161019257829003601f168201915b505050505081526020016001820180546101c890610ec7565b80601f01602080910402602001604051908101604052809291908181526020018280546101f490610ec7565b80156102415780601f1061021657610100808354040283529160200191610241565b820191906000526020600020905b81548152906001019060200180831161022457829003601f168201915b5050505050815260200160028201805461025a90610ec7565b80601f016020809104026020016040519081016040528092919081815260200182805461028690610ec7565b80156102d35780601f106102a8576101008083540402835291602001916102d3565b820191906000526020600020905b8154815290600101906020018083116102b657829003601f168201915b505050505081526020016003820180546102ec90610ec7565b80601f016020809104026020016040519081016040528092919081815260200182805461031890610ec7565b80156103655780601f1061033a57610100808354040283529160200191610365565b820191906000526020600020905b81548152906001019060200180831161034857829003601f168201915b5050505050815260200160048201805461037e90610ec7565b80601f01602080910402602001604051908101604052809291908181526020018280546103aa90610ec7565b80156103f75780601f106103cc576101008083540402835291602001916103f7565b820191906000526020600020905b8154815290600101906020018083116103da57829003601f168201915b5050505050815250509050919050565b60008180516020810182018051848252602083016020850120818352809550505050505060009150905080600001805461044090610ec7565b80601f016020809104026020016040519081016040528092919081815260200182805461046c90610ec7565b80156104b95780601f1061048e576101008083540402835291602001916104b9565b820191906000526020600020905b81548152906001019060200180831161049c57829003601f168201915b5050505050908060010180546104ce90610ec7565b80601f01602080910402602001604051908101604052809291908181526020018280546104fa90610ec7565b80156105475780601f1061051c57610100808354040283529160200191610547565b820191906000526020600020905b81548152906001019060200180831161052a57829003601f168201915b50505050509080600201805461055c90610ec7565b80601f016020809104026020016040519081016040528092919081815260200182805461058890610ec7565b80156105d55780601f106105aa576101008083540402835291602001916105d5565b820191906000526020600020905b8154815290600101906020018083116105b857829003601f168201915b5050505050908060030180546105ea90610ec7565b80601f016020809104026020016040519081016040528092919081815260200182805461061690610ec7565b80156106635780601f1061063857610100808354040283529160200191610663565b820191906000526020600020905b81548152906001019060200180831161064657829003601f168201915b50505050509080600401805461067890610ec7565b80601f01602080910402602001604051908101604052809291908181526020018280546106a490610ec7565b80156106f15780601f106106c6576101008083540402835291602001916106f1565b820191906000526020600020905b8154815290600101906020018083116106d457829003601f168201915b5050505050905085565b8460028160405161070c9190610e81565b908152602001604051809103902060009054906101000a900460ff1615610768576040517f08c379a000000000000000000000000000000000000000000000000000000000815260040161075f90610f44565b60405180910390fd5b846003816040516107799190610e81565b908152602001604051809103902060009054906101000a900460ff16156107d5576040517f08c379a00000000000000000000000000000000000000000000000000000000081526004016107cc90610fb0565b60405180910390fd5b600080886040516107e69190610e81565b9081526020016040518091039020905087816000019081610807919061117c565b5086816001019081610819919061117c565b508581600301908161082b919061117c565b508481600201908161083d919061117c565b508381600401908161084f919061117c565b50876001886040516108619190610e81565b9081526020016040518091039020908161087b919061117c565b50600160028960405161088e9190610e81565b908152602001604051809103902060006101000a81548160ff02191690831515021790555060016003886040516108c59190610e81565b908152602001604051809103902060006101000a81548160ff021916908315150217905550600460008154809291906108fd9061127d565b91905055507f996d7324173609959370942b1ee1b743dc623b3d50459e66c1d55df55e5a9f3788866040516109339291906112c5565b60405180910390a15050505050505050565b6040518060a0016040528060608152602001606081526020016060815260200160608152602001606081525090565b6000819050919050565b61098781610974565b82525050565b60006020820190506109a2600083018461097e565b92915050565b6000604051905090565b600080fd5b600080fd5b600080fd5b600080fd5b6000601f19601f8301169050919050565b7f4e487b7100000000000000000000000000000000000000000000000000000000600052604160045260246000fd5b610a0f826109c6565b810181811067ffffffffffffffff82111715610a2e57610a2d6109d7565b5b80604052505050565b6000610a416109a8565b9050610a4d8282610a06565b919050565b600067ffffffffffffffff821115610a6d57610a6c6109d7565b5b610a76826109c6565b9050602081019050919050565b82818337600083830152505050565b6000610aa5610aa084610a52565b610a37565b905082815260208101848484011115610ac157610ac06109c1565b5b610acc848285610a83565b509392505050565b600082601f830112610ae957610ae86109bc565b5b8135610af9848260208601610a92565b91505092915050565b600060208284031215610b1857610b176109b2565b5b600082013567ffffffffffffffff811115610b3657610b356109b7565b5b610b4284828501610ad4565b91505092915050565b600081519050919050565b600082825260208201905092915050565b60005b83811015610b85578082015181840152602081019050610b6a565b60008484015250505050565b6000610b9c82610b4b565b610ba68185610b56565b9350610bb6818560208601610b67565b610bbf816109c6565b840191505092915050565b600060a0830160008301518482036000860152610be78282610b91565b91505060208301518482036020860152610c018282610b91565b91505060408301518482036040860152610c1b8282610b91565b91505060608301518482036060860152610c358282610b91565b91505060808301518482036080860152610c4f8282610b91565b9150508091505092915050565b60006020820190508181036000830152610c768184610bca565b905092915050565b600082825260208201905092915050565b6000610c9a82610b4b565b610ca48185610c7e565b9350610cb4818560208601610b67565b610cbd816109c6565b840191505092915050565b600060a0820190508181036000830152610ce28188610c8f565b90508181036020830152610cf68187610c8f565b90508181036040830152610d0a8186610c8f565b90508181036060830152610d1e8185610c8f565b90508181036080830152610d328184610c8f565b90509695505050505050565b600080600080600060a08688031215610d5a57610d596109b2565b5b600086013567ffffffffffffffff811115610d7857610d776109b7565b5b610d8488828901610ad4565b955050602086013567ffffffffffffffff811115610da557610da46109b7565b5b610db188828901610ad4565b945050604086013567ffffffffffffffff811115610dd257610dd16109b7565b5b610dde88828901610ad4565b935050606086013567ffffffffffffffff811115610dff57610dfe6109b7565b5b610e0b88828901610ad4565b925050608086013567ffffffffffffffff811115610e2c57610e2b6109b7565b5b610e3888828901610ad4565b9150509295509295909350565b600081905092915050565b6000610e5b82610b4b565b610e658185610e45565b9350610e75818560208601610b67565b80840191505092915050565b6000610e8d8284610e50565b915081905092915050565b7f4e487b7100000000000000000000000000000000000000000000000000000000600052602260045260246000fd5b60006002820490506001821680610edf57607f821691505b602082108103610ef257610ef1610e98565b5b50919050565b7f434e4920616c7265616479206578697374730000000000000000000000000000600082015250565b6000610f2e601283610c7e565b9150610f3982610ef8565b602082019050919050565b60006020820190508181036000830152610f5d81610f21565b9050919050565b7f434e4520616c7265616479206578697374730000000000000000000000000000600082015250565b6000610f9a601283610c7e565b9150610fa582610f64565b602082019050919050565b60006020820190508181036000830152610fc981610f8d565b9050919050565b60008190508160005260206000209050919050565b60006020601f8301049050919050565b600082821b905092915050565b6000600883026110327fffffffffffffffffffffffffffffffffffffffffffffffffffffffffffffffff82610ff5565b61103c8683610ff5565b95508019841693508086168417925050509392505050565b6000819050919050565b600061107961107461106f84610974565b611054565b610974565b9050919050565b6000819050919050565b6110938361105e565b6110a761109f82611080565b848454611002565b825550505050565b600090565b6110bc6110af565b6110c781848461108a565b505050565b5b818110156110eb576110e06000826110b4565b6001810190506110cd565b5050565b601f8211156111305761110181610fd0565b61110a84610fe5565b81016020851015611119578190505b61112d61112585610fe5565b8301826110cc565b50505b505050565b600082821c905092915050565b600061115360001984600802611135565b1980831691505092915050565b600061116c8383611142565b9150826002028217905092915050565b61118582610b4b565b67ffffffffffffffff81111561119e5761119d6109d7565b5b6111a88254610ec7565b6111b38282856110ef565b600060209050601f8311600181146111e657600084156111d4578287015190505b6111de8582611160565b865550611246565b601f1984166111f486610fd0565b60005b8281101561121c578489015182556001820191506020850194506020810190506111f7565b868310156112395784890151611235601f891682611142565b8355505b6001600288020188555050505b505050505050565b7f4e487b7100000000000000000000000000000000000000000000000000000000600052601160045260246000fd5b600061128882610974565b91507fffffffffffffffffffffffffffffffffffffffffffffffffffffffffffffffff82036112ba576112b961124e565b5b600182019050919050565b600060408201905081810360008301526112df8185610c8f565b905081810360208301526112f38184610c8f565b9050939250505056fea26469706673582212204a04ee2ce9c2c1b805b7af018dbd396784d04fcb5908a55804687297304991bd64736f6c63430008180033",
  "linkReferences": {},
  "deployedLinkReferences": {}
}